{
  "_format": "hh-sol-artifact-1",
  "contractName": "ZombieAttack",
  "sourceName": "contracts/zombieattack.sol",
  "abi": [
    {
      "inputs": [
        {
          "internalType": "string[]",
          "name": "characterImages",
          "type": "string[]"
        }
      ],
      "stateMutability": "nonpayable",
      "type": "constructor"
    },
    {
      "anonymous": false,
      "inputs": [
        {
          "indexed": true,
          "internalType": "address",
          "name": "owner",
          "type": "address"
        },
        {
          "indexed": true,
          "internalType": "address",
          "name": "approved",
          "type": "address"
        },
        {
          "indexed": true,
          "internalType": "uint256",
          "name": "tokenId",
          "type": "uint256"
        }
      ],
      "name": "Approval",
      "type": "event"
    },
    {
      "anonymous": false,
      "inputs": [
        {
          "indexed": true,
          "internalType": "address",
          "name": "owner",
          "type": "address"
        },
        {
          "indexed": true,
          "internalType": "address",
          "name": "operator",
          "type": "address"
        },
        {
          "indexed": false,
          "internalType": "bool",
          "name": "approved",
          "type": "bool"
        }
      ],
      "name": "ApprovalForAll",
      "type": "event"
    },
    {
      "anonymous": false,
      "inputs": [
        {
          "indexed": false,
          "internalType": "address",
          "name": "_from",
          "type": "address"
        },
        {
          "indexed": false,
          "internalType": "uint256",
          "name": "zombieId",
          "type": "uint256"
        },
        {
          "indexed": false,
          "internalType": "string",
          "name": "name",
          "type": "string"
        },
        {
          "indexed": false,
          "internalType": "uint256",
          "name": "dna",
          "type": "uint256"
        }
      ],
      "name": "NewZombie",
      "type": "event"
    },
    {
      "anonymous": false,
      "inputs": [
        {
          "indexed": true,
          "internalType": "address",
          "name": "previousOwner",
          "type": "address"
        },
        {
          "indexed": true,
          "internalType": "address",
          "name": "newOwner",
          "type": "address"
        }
      ],
      "name": "OwnershipTransferred",
      "type": "event"
    },
    {
      "anonymous": false,
      "inputs": [
        {
          "indexed": true,
          "internalType": "address",
          "name": "from",
          "type": "address"
        },
        {
          "indexed": true,
          "internalType": "address",
          "name": "to",
          "type": "address"
        },
        {
          "indexed": true,
          "internalType": "uint256",
          "name": "tokenId",
          "type": "uint256"
        }
      ],
      "name": "Transfer",
      "type": "event"
    },
    {
      "inputs": [
        {
          "internalType": "address",
          "name": "to",
          "type": "address"
        },
        {
          "internalType": "uint256",
          "name": "tokenId",
          "type": "uint256"
        }
      ],
      "name": "approve",
      "outputs": [],
      "stateMutability": "nonpayable",
      "type": "function"
    },
    {
      "inputs": [
        {
          "internalType": "uint256",
          "name": "_zombieId",
          "type": "uint256"
        },
        {
          "internalType": "uint256",
          "name": "_targetId",
          "type": "uint256"
        }
      ],
      "name": "attack",
      "outputs": [
        {
          "internalType": "bool",
          "name": "",
          "type": "bool"
        }
      ],
      "stateMutability": "nonpayable",
      "type": "function"
    },
    {
      "inputs": [
        {
          "internalType": "address",
          "name": "owner",
          "type": "address"
        }
      ],
      "name": "balanceOf",
      "outputs": [
        {
          "internalType": "uint256",
          "name": "",
          "type": "uint256"
        }
      ],
      "stateMutability": "view",
      "type": "function"
    },
    {
      "inputs": [
        {
          "internalType": "uint256",
          "name": "_zombieId",
          "type": "uint256"
        },
        {
          "internalType": "uint256",
          "name": "_newDna",
          "type": "uint256"
        }
      ],
      "name": "changeDna",
      "outputs": [],
      "stateMutability": "nonpayable",
      "type": "function"
    },
    {
      "inputs": [
        {
          "internalType": "uint256",
          "name": "_zombieId",
          "type": "uint256"
        },
        {
          "internalType": "string",
          "name": "_newName",
          "type": "string"
        }
      ],
      "name": "changeName",
      "outputs": [],
      "stateMutability": "nonpayable",
      "type": "function"
    },
    {
      "inputs": [
        {
          "internalType": "uint256",
          "name": "",
          "type": "uint256"
        }
      ],
      "name": "characterImages",
      "outputs": [
        {
          "internalType": "string",
          "name": "",
          "type": "string"
        }
      ],
      "stateMutability": "view",
      "type": "function"
    },
    {
      "inputs": [],
      "name": "checkIfUserHasZombie",
      "outputs": [
        {
          "internalType": "uint256",
          "name": "",
          "type": "uint256"
        }
      ],
      "stateMutability": "view",
      "type": "function"
    },
    {
      "inputs": [
        {
          "internalType": "string",
          "name": "_name",
          "type": "string"
        }
      ],
      "name": "createRandomZombie",
      "outputs": [],
      "stateMutability": "nonpayable",
      "type": "function"
    },
    {
      "inputs": [
        {
          "internalType": "uint256",
          "name": "tokenId",
          "type": "uint256"
        }
      ],
      "name": "getApproved",
      "outputs": [
        {
          "internalType": "address",
          "name": "",
          "type": "address"
        }
      ],
      "stateMutability": "view",
      "type": "function"
    },
    {
      "inputs": [
        {
          "internalType": "uint256",
          "name": "zombieId",
          "type": "uint256"
        }
      ],
      "name": "getSingleZombie",
      "outputs": [
        {
          "internalType": "string",
          "name": "",
          "type": "string"
        },
        {
          "internalType": "uint256",
          "name": "",
          "type": "uint256"
        }
      ],
      "stateMutability": "view",
      "type": "function"
    },
    {
      "inputs": [],
      "name": "getZombies",
      "outputs": [
        {
          "components": [
            {
              "internalType": "string",
              "name": "name",
              "type": "string"
            },
            {
              "internalType": "uint256",
              "name": "dna",
              "type": "uint256"
            },
            {
              "internalType": "uint32",
              "name": "level",
              "type": "uint32"
            },
            {
              "internalType": "uint32",
              "name": "readyTime",
              "type": "uint32"
            },
            {
              "internalType": "uint16",
              "name": "winCount",
              "type": "uint16"
            },
            {
              "internalType": "uint16",
              "name": "lossCount",
              "type": "uint16"
            },
            {
              "internalType": "string",
              "name": "imageURI",
              "type": "string"
            },
            {
              "internalType": "uint256",
              "name": "characterIndex",
              "type": "uint256"
            }
          ],
          "internalType": "struct ZombieFactory.Zombie[]",
          "name": "",
          "type": "tuple[]"
        }
      ],
      "stateMutability": "view",
      "type": "function"
    },
    {
      "inputs": [
        {
          "internalType": "address",
          "name": "_owner",
          "type": "address"
        }
      ],
      "name": "getZombiesByOwner",
      "outputs": [
        {
          "internalType": "uint256[]",
          "name": "",
          "type": "uint256[]"
        }
      ],
      "stateMutability": "view",
      "type": "function"
    },
    {
      "inputs": [],
      "name": "getZombiesOwner",
      "outputs": [
        {
          "components": [
            {
              "internalType": "string",
              "name": "name",
              "type": "string"
            },
            {
              "internalType": "uint256",
              "name": "dna",
              "type": "uint256"
            },
            {
              "internalType": "uint32",
              "name": "level",
              "type": "uint32"
            },
            {
              "internalType": "uint32",
              "name": "readyTime",
              "type": "uint32"
            },
            {
              "internalType": "uint16",
              "name": "winCount",
              "type": "uint16"
            },
            {
              "internalType": "uint16",
              "name": "lossCount",
              "type": "uint16"
            },
            {
              "internalType": "string",
              "name": "imageURI",
              "type": "string"
            },
            {
              "internalType": "uint256",
              "name": "characterIndex",
              "type": "uint256"
            }
          ],
          "internalType": "struct ZombieFactory.Zombie[]",
          "name": "",
          "type": "tuple[]"
        }
      ],
      "stateMutability": "view",
      "type": "function"
    },
    {
      "inputs": [],
      "name": "getZombiesToAttack",
      "outputs": [
        {
          "components": [
            {
              "internalType": "string",
              "name": "name",
              "type": "string"
            },
            {
              "internalType": "uint256",
              "name": "dna",
              "type": "uint256"
            },
            {
              "internalType": "uint32",
              "name": "level",
              "type": "uint32"
            },
            {
              "internalType": "uint32",
              "name": "readyTime",
              "type": "uint32"
            },
            {
              "internalType": "uint16",
              "name": "winCount",
              "type": "uint16"
            },
            {
              "internalType": "uint16",
              "name": "lossCount",
              "type": "uint16"
            },
            {
              "internalType": "string",
              "name": "imageURI",
              "type": "string"
            },
            {
              "internalType": "uint256",
              "name": "characterIndex",
              "type": "uint256"
            }
          ],
          "internalType": "struct ZombieFactory.Zombie[]",
          "name": "",
          "type": "tuple[]"
        }
      ],
      "stateMutability": "view",
      "type": "function"
    },
    {
      "inputs": [
        {
          "internalType": "address",
          "name": "owner",
          "type": "address"
        },
        {
          "internalType": "address",
          "name": "operator",
          "type": "address"
        }
      ],
      "name": "isApprovedForAll",
      "outputs": [
        {
          "internalType": "bool",
          "name": "",
          "type": "bool"
        }
      ],
      "stateMutability": "view",
      "type": "function"
    },
    {
      "inputs": [],
      "name": "isOwner",
      "outputs": [
        {
          "internalType": "bool",
          "name": "",
          "type": "bool"
        }
      ],
      "stateMutability": "view",
      "type": "function"
    },
    {
      "inputs": [
        {
          "internalType": "uint256",
          "name": "_zombieId",
          "type": "uint256"
        }
      ],
      "name": "levelUp",
      "outputs": [],
      "stateMutability": "payable",
      "type": "function"
    },
    {
      "inputs": [],
      "name": "name",
      "outputs": [
        {
          "internalType": "string",
          "name": "",
          "type": "string"
        }
      ],
      "stateMutability": "view",
      "type": "function"
    },
    {
      "inputs": [],
      "name": "owner",
      "outputs": [
        {
          "internalType": "address",
          "name": "",
          "type": "address"
        }
      ],
      "stateMutability": "view",
      "type": "function"
    },
    {
      "inputs": [
        {
          "internalType": "uint256",
          "name": "tokenId",
          "type": "uint256"
        }
      ],
      "name": "ownerOf",
      "outputs": [
        {
          "internalType": "address",
          "name": "",
          "type": "address"
        }
      ],
      "stateMutability": "view",
      "type": "function"
    },
    {
      "inputs": [],
      "name": "renounceOwnership",
      "outputs": [],
      "stateMutability": "nonpayable",
      "type": "function"
    },
    {
      "inputs": [
        {
          "internalType": "address",
          "name": "from",
          "type": "address"
        },
        {
          "internalType": "address",
          "name": "to",
          "type": "address"
        },
        {
          "internalType": "uint256",
          "name": "tokenId",
          "type": "uint256"
        }
      ],
      "name": "safeTransferFrom",
      "outputs": [],
      "stateMutability": "nonpayable",
      "type": "function"
    },
    {
      "inputs": [
        {
          "internalType": "address",
          "name": "from",
          "type": "address"
        },
        {
          "internalType": "address",
          "name": "to",
          "type": "address"
        },
        {
          "internalType": "uint256",
          "name": "tokenId",
          "type": "uint256"
        },
        {
          "internalType": "bytes",
          "name": "_data",
          "type": "bytes"
        }
      ],
      "name": "safeTransferFrom",
      "outputs": [],
      "stateMutability": "nonpayable",
      "type": "function"
    },
    {
      "inputs": [
        {
          "internalType": "address",
          "name": "operator",
          "type": "address"
        },
        {
          "internalType": "bool",
          "name": "approved",
          "type": "bool"
        }
      ],
      "name": "setApprovalForAll",
      "outputs": [],
      "stateMutability": "nonpayable",
      "type": "function"
    },
    {
      "inputs": [
        {
          "internalType": "address",
          "name": "_address",
          "type": "address"
        }
      ],
      "name": "setKittyContractAddress",
      "outputs": [],
      "stateMutability": "nonpayable",
      "type": "function"
    },
    {
      "inputs": [
        {
          "internalType": "uint256",
          "name": "_fee",
          "type": "uint256"
        }
      ],
      "name": "setLevelUpFee",
      "outputs": [],
      "stateMutability": "nonpayable",
      "type": "function"
    },
    {
      "inputs": [
        {
          "internalType": "bytes4",
          "name": "interfaceId",
          "type": "bytes4"
        }
      ],
      "name": "supportsInterface",
      "outputs": [
        {
          "internalType": "bool",
          "name": "",
          "type": "bool"
        }
      ],
      "stateMutability": "view",
      "type": "function"
    },
    {
      "inputs": [],
      "name": "symbol",
      "outputs": [
        {
          "internalType": "string",
          "name": "",
          "type": "string"
        }
      ],
      "stateMutability": "view",
      "type": "function"
    },
    {
      "inputs": [
        {
          "internalType": "uint256",
          "name": "_tokenId",
          "type": "uint256"
        }
      ],
      "name": "tokenURI",
      "outputs": [
        {
          "internalType": "string",
          "name": "",
          "type": "string"
        }
      ],
      "stateMutability": "view",
      "type": "function"
    },
    {
      "inputs": [
        {
          "internalType": "address",
          "name": "from",
          "type": "address"
        },
        {
          "internalType": "address",
          "name": "to",
          "type": "address"
        },
        {
          "internalType": "uint256",
          "name": "tokenId",
          "type": "uint256"
        }
      ],
      "name": "transferFrom",
      "outputs": [],
      "stateMutability": "nonpayable",
      "type": "function"
    },
    {
      "inputs": [
        {
          "internalType": "address",
          "name": "newOwner",
          "type": "address"
        }
      ],
      "name": "transferOwnership",
      "outputs": [],
      "stateMutability": "nonpayable",
      "type": "function"
    },
    {
      "inputs": [],
      "name": "withdraw",
      "outputs": [],
      "stateMutability": "nonpayable",
      "type": "function"
    },
    {
      "inputs": [
        {
          "internalType": "uint256",
          "name": "",
          "type": "uint256"
        }
      ],
      "name": "zombieToOwner",
      "outputs": [
        {
          "internalType": "address",
          "name": "",
          "type": "address"
        }
      ],
      "stateMutability": "view",
      "type": "function"
    },
    {
      "inputs": [
        {
          "internalType": "uint256",
          "name": "",
          "type": "uint256"
        }
      ],
      "name": "zombies",
      "outputs": [
        {
          "internalType": "string",
          "name": "name",
          "type": "string"
        },
        {
          "internalType": "uint256",
          "name": "dna",
          "type": "uint256"
        },
        {
          "internalType": "uint32",
          "name": "level",
          "type": "uint32"
        },
        {
          "internalType": "uint32",
          "name": "readyTime",
          "type": "uint32"
        },
        {
          "internalType": "uint16",
          "name": "winCount",
          "type": "uint16"
        },
        {
          "internalType": "uint16",
          "name": "lossCount",
          "type": "uint16"
        },
        {
          "internalType": "string",
          "name": "imageURI",
          "type": "string"
        },
        {
          "internalType": "uint256",
          "name": "characterIndex",
          "type": "uint256"
        }
      ],
      "stateMutability": "view",
      "type": "function"
    }
  ],
  "bytecode": "0x60806040526010600755600754600a6200001a9190620005f9565b6008556201518060095566038d7ea4c68000601055600060115560466012553480156200004657600080fd5b50604051620066c8380380620066c883398181016040528101906200006c91906200048c565b8080806040518060400160405280600781526020017f5a6f6d62696573000000000000000000000000000000000000000000000000008152506040518060400160405280600681526020017f5a4f4d4249450000000000000000000000000000000000000000000000000000815250336000806101000a81548173ffffffffffffffffffffffffffffffffffffffff021916908373ffffffffffffffffffffffffffffffffffffffff16021790555060008054906101000a900473ffffffffffffffffffffffffffffffffffffffff1673ffffffffffffffffffffffffffffffffffffffff16600073ffffffffffffffffffffffffffffffffffffffff167f8be0079c531659141344cd1fd0a4f28419497f9722a3daafe3b4186f6b6457e060405160405180910390a38160019080519060200190620001ae929190620002ad565b508060029080519060200190620001c7929190620002ad565b50505060005b81518161ffff1610156200027557600a828261ffff16815181106200021b577f4e487b7100000000000000000000000000000000000000000000000000000000600052603260045260246000fd5b60200260200101519080600181540180825580915050600190039060005260206000200160009091909190915090805190602001906200025d929190620002ad565b506001816200026d91906200055f565b9050620001cd565b506200028d600b6200029760201b62002bb61760201c565b505050506200089b565b6001816000016000828254019250508190555050565b828054620002bb9062000784565b90600052602060002090601f016020900481019282620002df57600085556200032b565b82601f10620002fa57805160ff19168380011785556200032b565b828001600101855582156200032b579182015b828111156200032a5782518255916020019190600101906200030d565b5b5090506200033a91906200033e565b5090565b5b80821115620003595760008160009055506001016200033f565b5090565b6000620003746200036e84620004fa565b620004d1565b905080838252602082019050828560208602820111156200039457600080fd5b60005b85811015620003e357815167ffffffffffffffff811115620003b857600080fd5b808601620003c789826200045f565b8552602085019450602084019350505060018101905062000397565b5050509392505050565b600062000404620003fe8462000529565b620004d1565b9050828152602081018484840111156200041d57600080fd5b6200042a8482856200074e565b509392505050565b600082601f8301126200044457600080fd5b8151620004568482602086016200035d565b91505092915050565b600082601f8301126200047157600080fd5b815162000483848260208601620003ed565b91505092915050565b6000602082840312156200049f57600080fd5b600082015167ffffffffffffffff811115620004ba57600080fd5b620004c88482850162000432565b91505092915050565b6000620004dd620004f0565b9050620004eb8282620007ba565b919050565b6000604051905090565b600067ffffffffffffffff8211156200051857620005176200084e565b5b602082029050602081019050919050565b600067ffffffffffffffff8211156200054757620005466200084e565b5b62000552826200087d565b9050602081019050919050565b60006200056c8262000736565b9150620005798362000736565b92508261ffff03821115620005935762000592620007f0565b5b828201905092915050565b6000808291508390505b6001851115620005f057808604811115620005c857620005c7620007f0565b5b6001851615620005d85780820291505b8081029050620005e8856200088e565b9450620005a8565b94509492505050565b6000620006068262000744565b9150620006138362000744565b9250620006427fffffffffffffffffffffffffffffffffffffffffffffffffffffffffffffffff84846200064a565b905092915050565b6000826200065c57600190506200072f565b816200066c57600090506200072f565b81600181146200068557600281146200069057620006c6565b60019150506200072f565b60ff841115620006a557620006a4620007f0565b5b8360020a915084821115620006bf57620006be620007f0565b5b506200072f565b5060208310610133831016604e8410600b8410161715620007005782820a905083811115620006fa57620006f9620007f0565b5b6200072f565b6200070f84848460016200059e565b92509050818404811115620007295762000728620007f0565b5b81810290505b9392505050565b600061ffff82169050919050565b6000819050919050565b60005b838110156200076e57808201518184015260208101905062000751565b838111156200077e576000848401525b50505050565b600060028204905060018216806200079d57607f821691505b60208210811415620007b457620007b36200081f565b5b50919050565b620007c5826200087d565b810181811067ffffffffffffffff82111715620007e757620007e66200084e565b5b80604052505050565b7f4e487b7100000000000000000000000000000000000000000000000000000000600052601160045260246000fd5b7f4e487b7100000000000000000000000000000000000000000000000000000000600052602260045260246000fd5b7f4e487b7100000000000000000000000000000000000000000000000000000000600052604160045260246000fd5b6000601f19601f8301169050919050565b60008160011c9050919050565b615e1d80620008ab6000396000f3fe6080604052600436106101f95760003560e01c80637bff0a011161010d578063c51ec4f5116100a0578063e1fa76381161006f578063e1fa76381461073c578063e81aab7414610779578063e985e9c5146107b6578063f2fde38b146107f3578063fb471bd51461081c576101f9565b8063c51ec4f51461066d578063c87b56dd146106ab578063ccf670f8146106e8578063df94af2914610711576101f9565b8063a22cb465116100dc578063a22cb465146105c7578063b1ef5ebb146105f0578063b88d4fde1461061b578063c39cbef114610644576101f9565b80637bff0a011461051d5780638da5cb5b146105465780638f32d59b1461057157806395d89b411461059c576101f9565b806342842e0e116101905780635f4623f11161015f5780635f4623f11461043a5780635faf2880146104635780636352211e1461048c57806370a08231146104c9578063715018a614610506576101f9565b806342842e0e1461036c5780634412e1041461039557806350df87f3146103d2578063528b7b8f146103fd576101f9565b80630ce90ec2116101cc5780630ce90ec2146102cc5780632052465e146102e857806323b872dd1461032c5780633ccfd60b14610355576101f9565b806301ffc9a7146101fe57806306fdde031461023b578063081812fc14610266578063095ea7b3146102a3575b600080fd5b34801561020a57600080fd5b506102256004803603810190610220919061454e565b610847565b6040516102329190614efe565b60405180910390f35b34801561024757600080fd5b50610250610929565b60405161025d9190614f19565b60405180910390f35b34801561027257600080fd5b5061028d600480360381019061028891906145e1565b6109bb565b60405161029a9190614e07565b60405180910390f35b3480156102af57600080fd5b506102ca60048036038101906102c59190614512565b610a40565b005b6102e660048036038101906102e191906145e1565b610b58565b005b3480156102f457600080fd5b5061030f600480360381019061030a91906145e1565b610c3a565b604051610323989796959493929190614f6b565b60405180910390f35b34801561033857600080fd5b50610353600480360381019061034e919061440c565b610dde565b005b34801561036157600080fd5b5061036a610e3e565b005b34801561037857600080fd5b50610393600480360381019061038e919061440c565b610ea5565b005b3480156103a157600080fd5b506103bc60048036038101906103b791906143a7565b610ec5565b6040516103c99190614edc565b60405180910390f35b3480156103de57600080fd5b506103e7611064565b6040516103f49190614eba565b60405180910390f35b34801561040957600080fd5b50610424600480360381019061041f91906145e1565b611437565b6040516104319190614e07565b60405180910390f35b34801561044657600080fd5b50610461600480360381019061045c91906143a7565b61146a565b005b34801561046f57600080fd5b5061048a6004803603810190610485919061465e565b6114bf565b005b34801561049857600080fd5b506104b360048036038101906104ae91906145e1565b6115f3565b6040516104c09190614e07565b60405180910390f35b3480156104d557600080fd5b506104f060048036038101906104eb91906143a7565b6116a5565b6040516104fd9190615197565b60405180910390f35b34801561051257600080fd5b5061051b61175d565b005b34801561052957600080fd5b50610544600480360381019061053f91906145a0565b61182c565b005b34801561055257600080fd5b5061055b611870565b6040516105689190614e07565b60405180910390f35b34801561057d57600080fd5b50610586611899565b6040516105939190614efe565b60405180910390f35b3480156105a857600080fd5b506105b16118f0565b6040516105be9190614f19565b60405180910390f35b3480156105d357600080fd5b506105ee60048036038101906105e991906144d6565b611982565b005b3480156105fc57600080fd5b50610605611998565b6040516106129190614eba565b60405180910390f35b34801561062757600080fd5b50610642600480360381019061063d919061445b565b611d56565b005b34801561065057600080fd5b5061066b6004803603810190610666919061460a565b611db8565b005b34801561067957600080fd5b50610694600480360381019061068f91906145e1565b611efc565b6040516106a2929190614f3b565b60405180910390f35b3480156106b757600080fd5b506106d260048036038101906106cd91906145e1565b61212f565b6040516106df9190614f19565b60405180910390f35b3480156106f457600080fd5b5061070f600480360381019061070a91906145e1565b61242c565b005b34801561071d57600080fd5b50610726612447565b6040516107339190615197565b60405180910390f35b34801561074857600080fd5b50610763600480360381019061075e919061465e565b6124df565b6040516107709190614efe565b60405180910390f35b34801561078557600080fd5b506107a0600480360381019061079b91906145e1565b612835565b6040516107ad9190614f19565b60405180910390f35b3480156107c257600080fd5b506107dd60048036038101906107d891906143d0565b6128e1565b6040516107ea9190614efe565b60405180910390f35b3480156107ff57600080fd5b5061081a600480360381019061081591906143a7565b612975565b005b34801561082857600080fd5b50610831612992565b60405161083e9190614eba565b60405180910390f35b60007f80ac58cd000000000000000000000000000000000000000000000000000000007bffffffffffffffffffffffffffffffffffffffffffffffffffffffff1916827bffffffffffffffffffffffffffffffffffffffffffffffffffffffff1916148061091257507f5b5e139f000000000000000000000000000000000000000000000000000000007bffffffffffffffffffffffffffffffffffffffffffffffffffffffff1916827bffffffffffffffffffffffffffffffffffffffffffffffffffffffff1916145b80610922575061092182612bcc565b5b9050919050565b6060600180546109389061555a565b80601f01602080910402602001604051908101604052809291908181526020018280546109649061555a565b80156109b15780601f10610986576101008083540402835291602001916109b1565b820191906000526020600020905b81548152906001019060200180831161099457829003601f168201915b5050505050905090565b60006109c682612c36565b610a05576040517f08c379a00000000000000000000000000000000000000000000000000000000081526004016109fc90615137565b60405180910390fd5b6005600083815260200190815260200160002060009054906101000a900473ffffffffffffffffffffffffffffffffffffffff169050919050565b6000610a4b826115f3565b90508073ffffffffffffffffffffffffffffffffffffffff168373ffffffffffffffffffffffffffffffffffffffff161415610abc576040517f08c379a0000000000000000000000000000000000000000000000000000000008152600401610ab390615157565b60405180910390fd5b8073ffffffffffffffffffffffffffffffffffffffff16610adb612ca2565b73ffffffffffffffffffffffffffffffffffffffff161480610b0a5750610b0981610b04612ca2565b6128e1565b5b610b49576040517f08c379a0000000000000000000000000000000000000000000000000000000008152600401610b40906150b7565b60405180910390fd5b610b538383612caa565b505050565b6010543414610b6657600080fd5b6001600c8281548110610ba2577f4e487b7100000000000000000000000000000000000000000000000000000000600052603260045260246000fd5b906000526020600020906005020160020160009054906101000a900463ffffffff16610bce919061538d565b600c8281548110610c08577f4e487b7100000000000000000000000000000000000000000000000000000000600052603260045260246000fd5b906000526020600020906005020160020160006101000a81548163ffffffff021916908363ffffffff16021790555050565b600c8181548110610c4a57600080fd5b9060005260206000209060050201600091509050806000018054610c6d9061555a565b80601f0160208091040260200160405190810160405280929190818152602001828054610c999061555a565b8015610ce65780601f10610cbb57610100808354040283529160200191610ce6565b820191906000526020600020905b815481529060010190602001808311610cc957829003601f168201915b5050505050908060010154908060020160009054906101000a900463ffffffff16908060020160049054906101000a900463ffffffff16908060020160089054906101000a900461ffff169080600201600a9054906101000a900461ffff1690806003018054610d559061555a565b80601f0160208091040260200160405190810160405280929190818152602001828054610d819061555a565b8015610dce5780601f10610da357610100808354040283529160200191610dce565b820191906000526020600020905b815481529060010190602001808311610db157829003601f168201915b5050505050908060040154905088565b610def610de9612ca2565b82612d63565b610e2e576040517f08c379a0000000000000000000000000000000000000000000000000000000008152600401610e2590615177565b60405180910390fd5b610e39838383612e41565b505050565b610e46611899565b610e4f57600080fd5b6000610e59611870565b90508073ffffffffffffffffffffffffffffffffffffffff166108fc479081150290604051600060405180830381858888f19350505050158015610ea1573d6000803e3d6000fd5b5050565b610ec083838360405180602001604052806000815250611d56565b505050565b60606000600e60008473ffffffffffffffffffffffffffffffffffffffff1673ffffffffffffffffffffffffffffffffffffffff1681526020019081526020016000205467ffffffffffffffff811115610f48577f4e487b7100000000000000000000000000000000000000000000000000000000600052604160045260246000fd5b604051908082528060200260200182016040528015610f765781602001602082028036833780820191505090505b5090506000805b600c80549050811015611059578473ffffffffffffffffffffffffffffffffffffffff16600d600083815260200190815260200160002060009054906101000a900473ffffffffffffffffffffffffffffffffffffffff1673ffffffffffffffffffffffffffffffffffffffff161415611046578083838151811061102b577f4e487b7100000000000000000000000000000000000000000000000000000000600052603260045260246000fd5b6020026020010181815250508180611042906155bd565b9250505b8080611051906155bd565b915050610f7d565b508192505050919050565b60606000600e60003373ffffffffffffffffffffffffffffffffffffffff1673ffffffffffffffffffffffffffffffffffffffff16815260200190815260200160002054600c805490506110b89190615452565b905060008167ffffffffffffffff8111156110fc577f4e487b7100000000000000000000000000000000000000000000000000000000600052604160045260246000fd5b60405190808252806020026020018201604052801561113557816020015b611122614172565b81526020019060019003908161111a5790505b5090506000805b600c8054905081101561142d573373ffffffffffffffffffffffffffffffffffffffff16600d600083815260200190815260200160002060009054906101000a900473ffffffffffffffffffffffffffffffffffffffff1673ffffffffffffffffffffffffffffffffffffffff161461141a57600c81815481106111e9577f4e487b7100000000000000000000000000000000000000000000000000000000600052603260045260246000fd5b9060005260206000209060050201604051806101000160405290816000820180546112139061555a565b80601f016020809104026020016040519081016040528092919081815260200182805461123f9061555a565b801561128c5780601f106112615761010080835404028352916020019161128c565b820191906000526020600020905b81548152906001019060200180831161126f57829003601f168201915b50505050508152602001600182015481526020016002820160009054906101000a900463ffffffff1663ffffffff1663ffffffff1681526020016002820160049054906101000a900463ffffffff1663ffffffff1663ffffffff1681526020016002820160089054906101000a900461ffff1661ffff1661ffff16815260200160028201600a9054906101000a900461ffff1661ffff1661ffff16815260200160038201805461133b9061555a565b80601f01602080910402602001604051908101604052809291908181526020018280546113679061555a565b80156113b45780601f10611389576101008083540402835291602001916113b4565b820191906000526020600020905b81548152906001019060200180831161139757829003601f168201915b50505050508152602001600482015481525050838381518110611400577f4e487b7100000000000000000000000000000000000000000000000000000000600052603260045260246000fd5b60200260200101819052508180611416906155bd565b9250505b8080611425906155bd565b91505061113c565b5081935050505090565b600d6020528060005260406000206000915054906101000a900473ffffffffffffffffffffffffffffffffffffffff1681565b611472611899565b61147b57600080fd5b80600f60006101000a81548173ffffffffffffffffffffffffffffffffffffffff021916908373ffffffffffffffffffffffffffffffffffffffff16021790555050565b60148281600c82815481106114fd577f4e487b7100000000000000000000000000000000000000000000000000000000600052603260045260246000fd5b906000526020600020906005020160020160009054906101000a900463ffffffff1663ffffffff16101561153057600080fd5b83600d600082815260200190815260200160002060009054906101000a900473ffffffffffffffffffffffffffffffffffffffff1673ffffffffffffffffffffffffffffffffffffffff163373ffffffffffffffffffffffffffffffffffffffff161461159c57600080fd5b83600c86815481106115d7577f4e487b7100000000000000000000000000000000000000000000000000000000600052603260045260246000fd5b9060005260206000209060050201600101819055505050505050565b6000806003600084815260200190815260200160002060009054906101000a900473ffffffffffffffffffffffffffffffffffffffff169050600073ffffffffffffffffffffffffffffffffffffffff168173ffffffffffffffffffffffffffffffffffffffff16141561169c576040517f08c379a0000000000000000000000000000000000000000000000000000000008152600401611693906150f7565b60405180910390fd5b80915050919050565b60008073ffffffffffffffffffffffffffffffffffffffff168273ffffffffffffffffffffffffffffffffffffffff161415611716576040517f08c379a000000000000000000000000000000000000000000000000000000000815260040161170d906150d7565b60405180910390fd5b600460008373ffffffffffffffffffffffffffffffffffffffff1673ffffffffffffffffffffffffffffffffffffffff168152602001908152602001600020549050919050565b611765611899565b61176e57600080fd5b600073ffffffffffffffffffffffffffffffffffffffff1660008054906101000a900473ffffffffffffffffffffffffffffffffffffffff1673ffffffffffffffffffffffffffffffffffffffff167f8be0079c531659141344cd1fd0a4f28419497f9722a3daafe3b4186f6b6457e060405160405180910390a360008060006101000a81548173ffffffffffffffffffffffffffffffffffffffff021916908373ffffffffffffffffffffffffffffffffffffffff160217905550565b6000611837826130a8565b90506064816118469190615634565b816118519190615452565b90506033600c80549050101561186c5761186b82826130ed565b5b5050565b60008060009054906101000a900473ffffffffffffffffffffffffffffffffffffffff16905090565b60008060009054906101000a900473ffffffffffffffffffffffffffffffffffffffff1673ffffffffffffffffffffffffffffffffffffffff163373ffffffffffffffffffffffffffffffffffffffff1614905090565b6060600280546118ff9061555a565b80601f016020809104026020016040519081016040528092919081815260200182805461192b9061555a565b80156119785780601f1061194d57610100808354040283529160200191611978565b820191906000526020600020905b81548152906001019060200180831161195b57829003601f168201915b5050505050905090565b61199461198d612ca2565b83836134d4565b5050565b60606000600e60003373ffffffffffffffffffffffffffffffffffffffff1673ffffffffffffffffffffffffffffffffffffffff1681526020019081526020016000205467ffffffffffffffff811115611a1b577f4e487b7100000000000000000000000000000000000000000000000000000000600052604160045260246000fd5b604051908082528060200260200182016040528015611a5457816020015b611a41614172565b815260200190600190039081611a395790505b5090506000805b600c80549050811015611d4d573373ffffffffffffffffffffffffffffffffffffffff16600d600083815260200190815260200160002060009054906101000a900473ffffffffffffffffffffffffffffffffffffffff1673ffffffffffffffffffffffffffffffffffffffff161415611d3a57600c8181548110611b09577f4e487b7100000000000000000000000000000000000000000000000000000000600052603260045260246000fd5b906000526020600020906005020160405180610100016040529081600082018054611b339061555a565b80601f0160208091040260200160405190810160405280929190818152602001828054611b5f9061555a565b8015611bac5780601f10611b8157610100808354040283529160200191611bac565b820191906000526020600020905b815481529060010190602001808311611b8f57829003601f168201915b50505050508152602001600182015481526020016002820160009054906101000a900463ffffffff1663ffffffff1663ffffffff1681526020016002820160049054906101000a900463ffffffff1663ffffffff1663ffffffff1681526020016002820160089054906101000a900461ffff1661ffff1661ffff16815260200160028201600a9054906101000a900461ffff1661ffff1661ffff168152602001600382018054611c5b9061555a565b80601f0160208091040260200160405190810160405280929190818152602001828054611c879061555a565b8015611cd45780601f10611ca957610100808354040283529160200191611cd4565b820191906000526020600020905b815481529060010190602001808311611cb757829003601f168201915b50505050508152602001600482015481525050838381518110611d20577f4e487b7100000000000000000000000000000000000000000000000000000000600052603260045260246000fd5b60200260200101819052508180611d36906155bd565b9250505b8080611d45906155bd565b915050611a5b565b50819250505090565b611d67611d61612ca2565b83612d63565b611da6576040517f08c379a0000000000000000000000000000000000000000000000000000000008152600401611d9d90615177565b60405180910390fd5b611db284848484613641565b50505050565b60028281600c8281548110611df6577f4e487b7100000000000000000000000000000000000000000000000000000000600052603260045260246000fd5b906000526020600020906005020160020160009054906101000a900463ffffffff1663ffffffff161015611e2957600080fd5b83600d600082815260200190815260200160002060009054906101000a900473ffffffffffffffffffffffffffffffffffffffff1673ffffffffffffffffffffffffffffffffffffffff163373ffffffffffffffffffffffffffffffffffffffff1614611e9557600080fd5b83600c8681548110611ed0577f4e487b7100000000000000000000000000000000000000000000000000000000600052603260045260246000fd5b90600052602060002090600502016000019080519060200190611ef49291906141cb565b505050505050565b6060600080600c8481548110611f3b577f4e487b7100000000000000000000000000000000000000000000000000000000600052603260045260246000fd5b906000526020600020906005020160405180610100016040529081600082018054611f659061555a565b80601f0160208091040260200160405190810160405280929190818152602001828054611f919061555a565b8015611fde5780601f10611fb357610100808354040283529160200191611fde565b820191906000526020600020905b815481529060010190602001808311611fc157829003601f168201915b50505050508152602001600182015481526020016002820160009054906101000a900463ffffffff1663ffffffff1663ffffffff1681526020016002820160049054906101000a900463ffffffff1663ffffffff1663ffffffff1681526020016002820160089054906101000a900461ffff1661ffff1661ffff16815260200160028201600a9054906101000a900461ffff1661ffff1661ffff16815260200160038201805461208d9061555a565b80601f01602080910402602001604051908101604052809291908181526020018280546120b99061555a565b80156121065780601f106120db57610100808354040283529160200191612106565b820191906000526020600020905b8154815290600101906020018083116120e957829003601f168201915b505050505081526020016004820154815250509050806000015181602001519250925050915091565b60606000600c6001846121429190615452565b81548110612179577f4e487b7100000000000000000000000000000000000000000000000000000000600052603260045260246000fd5b9060005260206000209060050201604051806101000160405290816000820180546121a39061555a565b80601f01602080910402602001604051908101604052809291908181526020018280546121cf9061555a565b801561221c5780601f106121f15761010080835404028352916020019161221c565b820191906000526020600020905b8154815290600101906020018083116121ff57829003601f168201915b50505050508152602001600182015481526020016002820160009054906101000a900463ffffffff1663ffffffff1663ffffffff1681526020016002820160049054906101000a900463ffffffff1663ffffffff1663ffffffff1681526020016002820160089054906101000a900461ffff1661ffff1661ffff16815260200160028201600a9054906101000a900461ffff1661ffff1661ffff1681526020016003820180546122cb9061555a565b80601f01602080910402602001604051908101604052809291908181526020018280546122f79061555a565b80156123445780601f1061231957610100808354040283529160200191612344565b820191906000526020600020905b81548152906001019060200180831161232757829003601f168201915b505050505081526020016004820154815250509050600061236e826040015163ffffffff1661369d565b90506000612383836080015161ffff1661369d565b905060006123988460a0015161ffff1661369d565b905060006123a9856020015161369d565b905060008560c00151905060006123f687600001516123c78b61369d565b84898989896040516020016123e29796959493929190614ceb565b60405160208183030381529060405261384a565b905060008160405160200161240b9190614da8565b60405160208183030381529060405290508098505050505050505050919050565b612434611899565b61243d57600080fd5b8060108190555050565b600080600e60003373ffffffffffffffffffffffffffffffffffffffff1673ffffffffffffffffffffffffffffffffffffffff1681526020019081526020016000205411156124d757600e60003373ffffffffffffffffffffffffffffffffffffffff1673ffffffffffffffffffffffffffffffffffffffff1681526020019081526020016000205490506124dc565b600090505b90565b600082600d600082815260200190815260200160002060009054906101000a900473ffffffffffffffffffffffffffffffffffffffff1673ffffffffffffffffffffffffffffffffffffffff163373ffffffffffffffffffffffffffffffffffffffff161461254d57600080fd5b6000600c8581548110612589577f4e487b7100000000000000000000000000000000000000000000000000000000600052603260045260246000fd5b906000526020600020906005020190506000600c85815481106125d5577f4e487b7100000000000000000000000000000000000000000000000000000000600052603260045260246000fd5b906000526020600020906005020190503373ffffffffffffffffffffffffffffffffffffffff16600d600087815260200190815260200160002060009054906101000a900473ffffffffffffffffffffffffffffffffffffffff1673ffffffffffffffffffffffffffffffffffffffff16146128205760006126576064613a08565b9050601254811161278b5760018360020160089054906101000a900461ffff1661268191906152ff565b8360020160086101000a81548161ffff021916908361ffff16021790555060018360020160009054906101000a900463ffffffff166126c0919061538d565b8360020160006101000a81548163ffffffff021916908363ffffffff160217905550600182600201600a9054906101000a900461ffff1661270191906152ff565b82600201600a6101000a81548161ffff021916908361ffff1602179055506004600e60003373ffffffffffffffffffffffffffffffffffffffff1673ffffffffffffffffffffffffffffffffffffffff16815260200190815260200160002054101561277a57612775878360010154613a61565b612786565b6001945050505061282e565b61281a565b600183600201600a9054906101000a900461ffff166127aa91906152ff565b83600201600a6101000a81548161ffff021916908361ffff16021790555060018260020160089054906101000a900461ffff166127e791906152ff565b8260020160086101000a81548161ffff021916908361ffff16021790555061280e83613baa565b6000945050505061282e565b5061282b565b60009350505061282e565b50505b5092915050565b600a818154811061284557600080fd5b9060005260206000200160009150905080546128609061555a565b80601f016020809104026020016040519081016040528092919081815260200182805461288c9061555a565b80156128d95780601f106128ae576101008083540402835291602001916128d9565b820191906000526020600020905b8154815290600101906020018083116128bc57829003601f168201915b505050505081565b6000600660008473ffffffffffffffffffffffffffffffffffffffff1673ffffffffffffffffffffffffffffffffffffffff16815260200190815260200160002060008373ffffffffffffffffffffffffffffffffffffffff1673ffffffffffffffffffffffffffffffffffffffff16815260200190815260200160002060009054906101000a900460ff16905092915050565b61297d611899565b61298657600080fd5b61298f81613bdd565b50565b6060600c805480602002602001604051908101604052809291908181526020016000905b82821015612bad5783829060005260206000209060050201604051806101000160405290816000820180546129ea9061555a565b80601f0160208091040260200160405190810160405280929190818152602001828054612a169061555a565b8015612a635780601f10612a3857610100808354040283529160200191612a63565b820191906000526020600020905b815481529060010190602001808311612a4657829003601f168201915b50505050508152602001600182015481526020016002820160009054906101000a900463ffffffff1663ffffffff1663ffffffff1681526020016002820160049054906101000a900463ffffffff1663ffffffff1663ffffffff1681526020016002820160089054906101000a900461ffff1661ffff1661ffff16815260200160028201600a9054906101000a900461ffff1661ffff1661ffff168152602001600382018054612b129061555a565b80601f0160208091040260200160405190810160405280929190818152602001828054612b3e9061555a565b8015612b8b5780601f10612b6057610100808354040283529160200191612b8b565b820191906000526020600020905b815481529060010190602001808311612b6e57829003601f168201915b50505050508152602001600482015481525050815260200190600101906129b6565b50505050905090565b6001816000016000828254019250508190555050565b60007f01ffc9a7000000000000000000000000000000000000000000000000000000007bffffffffffffffffffffffffffffffffffffffffffffffffffffffff1916827bffffffffffffffffffffffffffffffffffffffffffffffffffffffff1916149050919050565b60008073ffffffffffffffffffffffffffffffffffffffff166003600084815260200190815260200160002060009054906101000a900473ffffffffffffffffffffffffffffffffffffffff1673ffffffffffffffffffffffffffffffffffffffff1614159050919050565b600033905090565b816005600083815260200190815260200160002060006101000a81548173ffffffffffffffffffffffffffffffffffffffff021916908373ffffffffffffffffffffffffffffffffffffffff160217905550808273ffffffffffffffffffffffffffffffffffffffff16612d1d836115f3565b73ffffffffffffffffffffffffffffffffffffffff167f8c5be1e5ebec7d5bd14f71427d1e84f3dd0314c0f7b2291e5b200ac8c7c3b92560405160405180910390a45050565b6000612d6e82612c36565b612dad576040517f08c379a0000000000000000000000000000000000000000000000000000000008152600401612da490615097565b60405180910390fd5b6000612db8836115f3565b90508073ffffffffffffffffffffffffffffffffffffffff168473ffffffffffffffffffffffffffffffffffffffff161480612e2757508373ffffffffffffffffffffffffffffffffffffffff16612e0f846109bb565b73ffffffffffffffffffffffffffffffffffffffff16145b80612e385750612e3781856128e1565b5b91505092915050565b8273ffffffffffffffffffffffffffffffffffffffff16612e61826115f3565b73ffffffffffffffffffffffffffffffffffffffff1614612eb7576040517f08c379a0000000000000000000000000000000000000000000000000000000008152600401612eae90615017565b60405180910390fd5b600073ffffffffffffffffffffffffffffffffffffffff168273ffffffffffffffffffffffffffffffffffffffff161415612f27576040517f08c379a0000000000000000000000000000000000000000000000000000000008152600401612f1e90615057565b60405180910390fd5b612f32838383613cd4565b612f3d600082612caa565b6001600460008573ffffffffffffffffffffffffffffffffffffffff1673ffffffffffffffffffffffffffffffffffffffff1681526020019081526020016000206000828254612f8d9190615452565b925050819055506001600460008473ffffffffffffffffffffffffffffffffffffffff1673ffffffffffffffffffffffffffffffffffffffff1681526020019081526020016000206000828254612fe49190615337565b92505081905550816003600083815260200190815260200160002060006101000a81548173ffffffffffffffffffffffffffffffffffffffff021916908373ffffffffffffffffffffffffffffffffffffffff160217905550808273ffffffffffffffffffffffffffffffffffffffff168473ffffffffffffffffffffffffffffffffffffffff167fddf252ad1be2c89b69c2b068fc378daa952ba7f163c4a11628f55a4df523b3ef60405160405180910390a46130a3838383613cd9565b505050565b600080826040516020016130bc9190614cd4565b6040516020818303038152906040528051906020012060001c9050600854816130e59190615634565b915050919050565b60006130f9600b613cde565b90506131053382613cec565b60006005905060008142338560405160200161312393929190614dca565b6040516020818303038152906040528051906020012060001c6131469190615634565b90506000600a8281548110613184577f4e487b7100000000000000000000000000000000000000000000000000000000600052603260045260246000fd5b9060005260206000200180546131999061555a565b80601f01602080910402602001604051908101604052809291908181526020018280546131c59061555a565b80156132125780601f106131e757610100808354040283529160200191613212565b820191906000526020600020905b8154815290600101906020018083116131f557829003601f168201915b50505050509050600c604051806101000160405280888152602001878152602001600163ffffffff1681526020016009544261324e9190615337565b63ffffffff168152602001600061ffff168152602001600061ffff16815260200183815260200186815250908060018154018082558091505060019003906000526020600020906005020160009091909190915060008201518160000190805190602001906132be9291906141cb565b506020820151816001015560408201518160020160006101000a81548163ffffffff021916908363ffffffff16021790555060608201518160020160046101000a81548163ffffffff021916908363ffffffff16021790555060808201518160020160086101000a81548161ffff021916908361ffff16021790555060a082015181600201600a6101000a81548161ffff021916908361ffff16021790555060c08201518160030190805190602001906133799291906141cb565b5060e08201518160040155505060006001600c8054905061339a9190615452565b905033600d600083815260200190815260200160002060006101000a81548173ffffffffffffffffffffffffffffffffffffffff021916908373ffffffffffffffffffffffffffffffffffffffff1602179055506134416001600e60003373ffffffffffffffffffffffffffffffffffffffff1673ffffffffffffffffffffffffffffffffffffffff16815260200190815260200160002054613d0a90919063ffffffff16565b600e60003373ffffffffffffffffffffffffffffffffffffffff1673ffffffffffffffffffffffffffffffffffffffff1681526020019081526020016000208190555061348e600b612bb6565b7ff92b1ba4cb9ae7683c3a3a1e58273b24013547531f590e32910f3105e8349e1f338289896040516134c39493929190614e6e565b60405180910390a150505050505050565b8173ffffffffffffffffffffffffffffffffffffffff168373ffffffffffffffffffffffffffffffffffffffff161415613543576040517f08c379a000000000000000000000000000000000000000000000000000000000815260040161353a90615077565b60405180910390fd5b80600660008573ffffffffffffffffffffffffffffffffffffffff1673ffffffffffffffffffffffffffffffffffffffff16815260200190815260200160002060008473ffffffffffffffffffffffffffffffffffffffff1673ffffffffffffffffffffffffffffffffffffffff16815260200190815260200160002060006101000a81548160ff0219169083151502179055508173ffffffffffffffffffffffffffffffffffffffff168373ffffffffffffffffffffffffffffffffffffffff167f17307eab39ab6107e8899845ad3d59bd9653f200f220920489ca2b5937696c31836040516136349190614efe565b60405180910390a3505050565b61364c848484612e41565b61365884848484613d5c565b613697576040517f08c379a000000000000000000000000000000000000000000000000000000000815260040161368e90614ff7565b60405180910390fd5b50505050565b606060008214156136e5576040518060400160405280600181526020017f30000000000000000000000000000000000000000000000000000000000000008152509050613845565b600082905060005b60008214613717578080613700906155bd565b915050600a8261371091906153c7565b91506136ed565b60008167ffffffffffffffff811115613759577f4e487b7100000000000000000000000000000000000000000000000000000000600052604160045260246000fd5b6040519080825280601f01601f19166020018201604052801561378b5781602001600182028036833780820191505090505b5090505b6000851461383e576001826137a49190615452565b9150600a856137b39190615634565b60306137bf9190615337565b60f81b8183815181106137fb577f4e487b7100000000000000000000000000000000000000000000000000000000600052603260045260246000fd5b60200101907effffffffffffffffffffffffffffffffffffffffffffffffffffffffffffff1916908160001a905350600a8561383791906153c7565b945061378f565b8093505050505b919050565b606060008251905060008114156138735760405180602001604052806000815250915050613a03565b600060036002836138849190615337565b61388e91906153c7565b600461389a91906153f8565b905060006020826138ab9190615337565b67ffffffffffffffff8111156138ea577f4e487b7100000000000000000000000000000000000000000000000000000000600052604160045260246000fd5b6040519080825280601f01601f19166020018201604052801561391c5781602001600182028036833780820191505090505b5090506000604051806060016040528060408152602001615da8604091399050600181016020830160005b868110156139c05760038101905062ffffff818a015116603f8160121c168401518060081b905060ff603f83600c1c1686015116810190508060081b905060ff603f8360061c1686015116810190508060081b905060ff603f831686015116810190508060e01b90508084526004840193505050613947565b5060038606600181146139da57600281146139ea576139f5565b613d3d60f01b60028303526139f5565b603d60f81b60018303525b508484525050819450505050505b919050565b60006001601154613a199190615337565b601181905550814233601154604051602001613a3793929190614dca565b6040516020818303038152906040528051906020012060001c613a5a9190615634565b9050919050565b81600d600082815260200190815260200160002060009054906101000a900473ffffffffffffffffffffffffffffffffffffffff1673ffffffffffffffffffffffffffffffffffffffff163373ffffffffffffffffffffffffffffffffffffffff1614613acd57600080fd5b6000600c8481548110613b09577f4e487b7100000000000000000000000000000000000000000000000000000000600052603260045260246000fd5b90600052602060002090600502019050613b2281613ef3565b613b2b57600080fd5b60085483613b399190615634565b925060006002848360010154613b4f9190615337565b613b5991906153c7565b9050613b9a6040518060400160405280600681526020017f4e6f4e616d650000000000000000000000000000000000000000000000000000815250826130ed565b613ba382613baa565b5050505050565b60095442613bb89190615337565b8160020160046101000a81548163ffffffff021916908363ffffffff16021790555050565b600073ffffffffffffffffffffffffffffffffffffffff168173ffffffffffffffffffffffffffffffffffffffff161415613c1757600080fd5b8073ffffffffffffffffffffffffffffffffffffffff1660008054906101000a900473ffffffffffffffffffffffffffffffffffffffff1673ffffffffffffffffffffffffffffffffffffffff167f8be0079c531659141344cd1fd0a4f28419497f9722a3daafe3b4186f6b6457e060405160405180910390a3806000806101000a81548173ffffffffffffffffffffffffffffffffffffffff021916908373ffffffffffffffffffffffffffffffffffffffff16021790555050565b505050565b505050565b600081600001549050919050565b613d06828260405180602001604052806000815250613f1a565b5050565b6000808284613d199190615337565b905083811015613d52577f4e487b7100000000000000000000000000000000000000000000000000000000600052600160045260246000fd5b8091505092915050565b6000613d7d8473ffffffffffffffffffffffffffffffffffffffff16613f75565b15613ee6578373ffffffffffffffffffffffffffffffffffffffff1663150b7a02613da6612ca2565b8786866040518563ffffffff1660e01b8152600401613dc89493929190614e22565b602060405180830381600087803b158015613de257600080fd5b505af1925050508015613e1357506040513d601f19601f82011682018060405250810190613e109190614577565b60015b613e96573d8060008114613e43576040519150601f19603f3d011682016040523d82523d6000602084013e613e48565b606091505b50600081511415613e8e576040517f08c379a0000000000000000000000000000000000000000000000000000000008152600401613e8590614ff7565b60405180910390fd5b805181602001fd5b63150b7a0260e01b7bffffffffffffffffffffffffffffffffffffffffffffffffffffffff1916817bffffffffffffffffffffffffffffffffffffffffffffffffffffffff191614915050613eeb565b600190505b949350505050565b6000428260020160049054906101000a900463ffffffff1663ffffffff1611159050919050565b613f248383613f98565b613f316000848484613d5c565b613f70576040517f08c379a0000000000000000000000000000000000000000000000000000000008152600401613f6790614ff7565b60405180910390fd5b505050565b6000808273ffffffffffffffffffffffffffffffffffffffff163b119050919050565b600073ffffffffffffffffffffffffffffffffffffffff168273ffffffffffffffffffffffffffffffffffffffff161415614008576040517f08c379a0000000000000000000000000000000000000000000000000000000008152600401613fff90615117565b60405180910390fd5b61401181612c36565b15614051576040517f08c379a000000000000000000000000000000000000000000000000000000000815260040161404890615037565b60405180910390fd5b61405d60008383613cd4565b6001600460008473ffffffffffffffffffffffffffffffffffffffff1673ffffffffffffffffffffffffffffffffffffffff16815260200190815260200160002060008282546140ad9190615337565b92505081905550816003600083815260200190815260200160002060006101000a81548173ffffffffffffffffffffffffffffffffffffffff021916908373ffffffffffffffffffffffffffffffffffffffff160217905550808273ffffffffffffffffffffffffffffffffffffffff16600073ffffffffffffffffffffffffffffffffffffffff167fddf252ad1be2c89b69c2b068fc378daa952ba7f163c4a11628f55a4df523b3ef60405160405180910390a461416e60008383613cd9565b5050565b6040518061010001604052806060815260200160008152602001600063ffffffff168152602001600063ffffffff168152602001600061ffff168152602001600061ffff16815260200160608152602001600081525090565b8280546141d79061555a565b90600052602060002090601f0160209004810192826141f95760008555614240565b82601f1061421257805160ff1916838001178555614240565b82800160010185558215614240579182015b8281111561423f578251825591602001919060010190614224565b5b50905061424d9190614251565b5090565b5b8082111561426a576000816000905550600101614252565b5090565b600061428161427c846151d7565b6151b2565b90508281526020810184848401111561429957600080fd5b6142a4848285615518565b509392505050565b60006142bf6142ba84615208565b6151b2565b9050828152602081018484840111156142d757600080fd5b6142e2848285615518565b509392505050565b6000813590506142f981615d4b565b92915050565b60008135905061430e81615d62565b92915050565b60008135905061432381615d79565b92915050565b60008151905061433881615d79565b92915050565b600082601f83011261434f57600080fd5b813561435f84826020860161426e565b91505092915050565b600082601f83011261437957600080fd5b81356143898482602086016142ac565b91505092915050565b6000813590506143a181615d90565b92915050565b6000602082840312156143b957600080fd5b60006143c7848285016142ea565b91505092915050565b600080604083850312156143e357600080fd5b60006143f1858286016142ea565b9250506020614402858286016142ea565b9150509250929050565b60008060006060848603121561442157600080fd5b600061442f868287016142ea565b9350506020614440868287016142ea565b925050604061445186828701614392565b9150509250925092565b6000806000806080858703121561447157600080fd5b600061447f878288016142ea565b9450506020614490878288016142ea565b93505060406144a187828801614392565b925050606085013567ffffffffffffffff8111156144be57600080fd5b6144ca8782880161433e565b91505092959194509250565b600080604083850312156144e957600080fd5b60006144f7858286016142ea565b9250506020614508858286016142ff565b9150509250929050565b6000806040838503121561452557600080fd5b6000614533858286016142ea565b925050602061454485828601614392565b9150509250929050565b60006020828403121561456057600080fd5b600061456e84828501614314565b91505092915050565b60006020828403121561458957600080fd5b600061459784828501614329565b91505092915050565b6000602082840312156145b257600080fd5b600082013567ffffffffffffffff8111156145cc57600080fd5b6145d884828501614368565b91505092915050565b6000602082840312156145f357600080fd5b600061460184828501614392565b91505092915050565b6000806040838503121561461d57600080fd5b600061462b85828601614392565b925050602083013567ffffffffffffffff81111561464857600080fd5b61465485828601614368565b9150509250929050565b6000806040838503121561467157600080fd5b600061467f85828601614392565b925050602061469085828601614392565b9150509250929050565b60006146a68383614bac565b905092915050565b60006146ba8383614c81565b60208301905092915050565b6146cf81615486565b82525050565b6146e66146e182615486565b615606565b82525050565b60006146f782615259565b614701818561529f565b93508360208202850161471385615239565b8060005b8581101561474f5784840389528151614730858261469a565b945061473b83615285565b925060208a01995050600181019050614717565b50829750879550505050505092915050565b600061476c82615264565b61477681856152b0565b935061478183615249565b8060005b838110156147b257815161479988826146ae565b97506147a483615292565b925050600181019050614785565b5085935050505092915050565b6147c881615498565b82525050565b60006147d98261526f565b6147e381856152c1565b93506147f3818560208601615527565b6147fc81615721565b840191505092915050565b60006148128261527a565b61481c81856152d2565b935061482c818560208601615527565b61483581615721565b840191505092915050565b600061484b8261527a565b61485581856152e3565b9350614865818560208601615527565b61486e81615721565b840191505092915050565b60006148848261527a565b61488e81856152f4565b935061489e818560208601615527565b80840191505092915050565b60006148b7600b836152f4565b91506148c28261573f565b600b82019050919050565b60006148da6029836152f4565b91506148e582615768565b602982019050919050565b60006148fd6032836152e3565b9150614908826157b7565b604082019050919050565b60006149206025836152e3565b915061492b82615806565b604082019050919050565b6000614943601c836152e3565b915061494e82615855565b602082019050919050565b60006149666022836152f4565b91506149718261587e565b602282019050919050565b60006149896028836152f4565b9150614994826158cd565b602882019050919050565b60006149ac6024836152e3565b91506149b78261591c565b604082019050919050565b60006149cf6019836152e3565b91506149da8261596b565b602082019050919050565b60006149f2602c836152e3565b91506149fd82615994565b604082019050919050565b6000614a156038836152e3565b9150614a20826159e3565b604082019050919050565b6000614a38602a836152e3565b9150614a4382615a32565b604082019050919050565b6000614a5b6029836152e3565b9150614a6682615a81565b604082019050919050565b6000614a7e6004836152f4565b9150614a8982615ad0565b600482019050919050565b6000614aa16020836152e3565b9150614aac82615af9565b602082019050919050565b6000614ac4602c836152e3565b9150614acf82615b22565b604082019050919050565b6000614ae76035836152f4565b9150614af282615b71565b603582019050919050565b6000614b0a600a836152f4565b9150614b1582615bc0565b600a82019050919050565b6000614b2d6021836152e3565b9150614b3882615be9565b604082019050919050565b6000614b50601d836152f4565b9150614b5b82615c38565b601d82019050919050565b6000614b736031836152e3565b9150614b7e82615c61565b604082019050919050565b6000614b966064836152f4565b9150614ba182615cb0565b606482019050919050565b6000610100830160008301518482036000860152614bca8282614807565b9150506020830151614bdf6020860182614c81565b506040830151614bf26040860182614cb6565b506060830151614c056060860182614cb6565b506080830151614c186080860182614c63565b5060a0830151614c2b60a0860182614c63565b5060c083015184820360c0860152614c438282614807565b91505060e0830151614c5860e0860182614c81565b508091505092915050565b614c6c816154d0565b82525050565b614c7b816154d0565b82525050565b614c8a816154fe565b82525050565b614c99816154fe565b82525050565b614cb0614cab826154fe565b61562a565b82525050565b614cbf81615508565b82525050565b614cce81615508565b82525050565b6000614ce08284614879565b915081905092915050565b6000614cf682614afd565b9150614d02828a614879565b9150614d0d826148aa565b9150614d198289614879565b9150614d2482614b89565b9150614d308288614879565b9150614d3b82614ada565b9150614d478287614879565b9150614d528261497c565b9150614d5e8286614879565b9150614d69826148cd565b9150614d758285614879565b9150614d8082614959565b9150614d8c8284614879565b9150614d9782614a71565b915081905098975050505050505050565b6000614db382614b43565b9150614dbf8284614879565b915081905092915050565b6000614dd68286614c9f565b602082019150614de682856146d5565b601482019150614df68284614c9f565b602082019150819050949350505050565b6000602082019050614e1c60008301846146c6565b92915050565b6000608082019050614e3760008301876146c6565b614e4460208301866146c6565b614e516040830185614c90565b8181036060830152614e6381846147ce565b905095945050505050565b6000608082019050614e8360008301876146c6565b614e906020830186614c90565b8181036040830152614ea28185614840565b9050614eb16060830184614c90565b95945050505050565b60006020820190508181036000830152614ed481846146ec565b905092915050565b60006020820190508181036000830152614ef68184614761565b905092915050565b6000602082019050614f1360008301846147bf565b92915050565b60006020820190508181036000830152614f338184614840565b905092915050565b60006040820190508181036000830152614f558185614840565b9050614f646020830184614c90565b9392505050565b6000610100820190508181036000830152614f86818b614840565b9050614f95602083018a614c90565b614fa26040830189614cc5565b614faf6060830188614cc5565b614fbc6080830187614c72565b614fc960a0830186614c72565b81810360c0830152614fdb8185614840565b9050614fea60e0830184614c90565b9998505050505050505050565b60006020820190508181036000830152615010816148f0565b9050919050565b6000602082019050818103600083015261503081614913565b9050919050565b6000602082019050818103600083015261505081614936565b9050919050565b600060208201905081810360008301526150708161499f565b9050919050565b60006020820190508181036000830152615090816149c2565b9050919050565b600060208201905081810360008301526150b0816149e5565b9050919050565b600060208201905081810360008301526150d081614a08565b9050919050565b600060208201905081810360008301526150f081614a2b565b9050919050565b6000602082019050818103600083015261511081614a4e565b9050919050565b6000602082019050818103600083015261513081614a94565b9050919050565b6000602082019050818103600083015261515081614ab7565b9050919050565b6000602082019050818103600083015261517081614b20565b9050919050565b6000602082019050818103600083015261519081614b66565b9050919050565b60006020820190506151ac6000830184614c90565b92915050565b60006151bc6151cd565b90506151c8828261558c565b919050565b6000604051905090565b600067ffffffffffffffff8211156151f2576151f16156f2565b5b6151fb82615721565b9050602081019050919050565b600067ffffffffffffffff821115615223576152226156f2565b5b61522c82615721565b9050602081019050919050565b6000819050602082019050919050565b6000819050602082019050919050565b600081519050919050565b600081519050919050565b600081519050919050565b600081519050919050565b6000602082019050919050565b6000602082019050919050565b600082825260208201905092915050565b600082825260208201905092915050565b600082825260208201905092915050565b600082825260208201905092915050565b600082825260208201905092915050565b600081905092915050565b600061530a826154d0565b9150615315836154d0565b92508261ffff0382111561532c5761532b615665565b5b828201905092915050565b6000615342826154fe565b915061534d836154fe565b9250827fffffffffffffffffffffffffffffffffffffffffffffffffffffffffffffffff0382111561538257615381615665565b5b828201905092915050565b600061539882615508565b91506153a383615508565b92508263ffffffff038211156153bc576153bb615665565b5b828201905092915050565b60006153d2826154fe565b91506153dd836154fe565b9250826153ed576153ec615694565b5b828204905092915050565b6000615403826154fe565b915061540e836154fe565b9250817fffffffffffffffffffffffffffffffffffffffffffffffffffffffffffffffff048311821515161561544757615446615665565b5b828202905092915050565b600061545d826154fe565b9150615468836154fe565b92508282101561547b5761547a615665565b5b828203905092915050565b6000615491826154de565b9050919050565b60008115159050919050565b60007fffffffff0000000000000000000000000000000000000000000000000000000082169050919050565b600061ffff82169050919050565b600073ffffffffffffffffffffffffffffffffffffffff82169050919050565b6000819050919050565b600063ffffffff82169050919050565b82818337600083830152505050565b60005b8381101561554557808201518184015260208101905061552a565b83811115615554576000848401525b50505050565b6000600282049050600182168061557257607f821691505b60208210811415615586576155856156c3565b5b50919050565b61559582615721565b810181811067ffffffffffffffff821117156155b4576155b36156f2565b5b80604052505050565b60006155c8826154fe565b91507fffffffffffffffffffffffffffffffffffffffffffffffffffffffffffffffff8214156155fb576155fa615665565b5b600182019050919050565b600061561182615618565b9050919050565b600061562382615732565b9050919050565b6000819050919050565b600061563f826154fe565b915061564a836154fe565b92508261565a57615659615694565b5b828206905092915050565b7f4e487b7100000000000000000000000000000000000000000000000000000000600052601160045260246000fd5b7f4e487b7100000000000000000000000000000000000000000000000000000000600052601260045260246000fd5b7f4e487b7100000000000000000000000000000000000000000000000000000000600052602260045260246000fd5b7f4e487b7100000000000000000000000000000000000000000000000000000000600052604160045260246000fd5b6000601f19601f8301169050919050565b60008160601b9050919050565b7f202d2d204e465420233a20000000000000000000000000000000000000000000600082015250565b7f7d2c207b202274726169745f74797065223a20224c6f7373436f756e74222c2060008201527f2276616c7565223a200000000000000000000000000000000000000000000000602082015250565b7f4552433732313a207472616e7366657220746f206e6f6e20455243373231526560008201527f63656976657220696d706c656d656e7465720000000000000000000000000000602082015250565b7f4552433732313a207472616e736665722066726f6d20696e636f72726563742060008201527f6f776e6572000000000000000000000000000000000000000000000000000000602082015250565b7f4552433732313a20746f6b656e20616c7265616479206d696e74656400000000600082015250565b7f7d2c7b202274726169745f74797065223a2022444e41222c202276616c75652260008201527f3a20000000000000000000000000000000000000000000000000000000000000602082015250565b7f7d2c207b202274726169745f74797065223a202257696e436f756e74222c202260008201527f76616c7565223a20000000000000000000000000000000000000000000000000602082015250565b7f4552433732313a207472616e7366657220746f20746865207a65726f2061646460008201527f7265737300000000000000000000000000000000000000000000000000000000602082015250565b7f4552433732313a20617070726f766520746f2063616c6c657200000000000000600082015250565b7f4552433732313a206f70657261746f7220717565727920666f72206e6f6e657860008201527f697374656e7420746f6b656e0000000000000000000000000000000000000000602082015250565b7f4552433732313a20617070726f76652063616c6c6572206973206e6f74206f7760008201527f6e6572206e6f7220617070726f76656420666f7220616c6c0000000000000000602082015250565b7f4552433732313a2062616c616e636520717565727920666f7220746865207a6560008201527f726f206164647265737300000000000000000000000000000000000000000000602082015250565b7f4552433732313a206f776e657220717565727920666f72206e6f6e657869737460008201527f656e7420746f6b656e0000000000000000000000000000000000000000000000602082015250565b7f7d205d7d00000000000000000000000000000000000000000000000000000000600082015250565b7f4552433732313a206d696e7420746f20746865207a65726f2061646472657373600082015250565b7f4552433732313a20617070726f76656420717565727920666f72206e6f6e657860008201527f697374656e7420746f6b656e0000000000000000000000000000000000000000602082015250565b7f222c202261747472696275746573223a205b207b202274726169745f7479706560008201527f223a20224c6576656c222c202276616c7565223a200000000000000000000000602082015250565b7f7b226e616d65223a202200000000000000000000000000000000000000000000600082015250565b7f4552433732313a20617070726f76616c20746f2063757272656e74206f776e6560008201527f7200000000000000000000000000000000000000000000000000000000000000602082015250565b7f646174613a6170706c69636174696f6e2f6a736f6e3b6261736536342c000000600082015250565b7f4552433732313a207472616e736665722063616c6c6572206973206e6f74206f60008201527f776e6572206e6f7220617070726f766564000000000000000000000000000000602082015250565b7f222c20226465736372697074696f6e223a20225468697320697320616e204e4660008201527f542074686174206c6574732070656f706c6520706c617920696e20746865206760208201527f616d65205a6f6d62696520576f726c6421222c2022696d616765223a2269706660408201527f733a2f2f00000000000000000000000000000000000000000000000000000000606082015250565b615d5481615486565b8114615d5f57600080fd5b50565b615d6b81615498565b8114615d7657600080fd5b50565b615d82816154a4565b8114615d8d57600080fd5b50565b615d99816154fe565b8114615da457600080fd5b5056fe4142434445464748494a4b4c4d4e4f505152535455565758595a6162636465666768696a6b6c6d6e6f707172737475767778797a303132333435363738392b2fa26469706673582212201eb105296afcaff923fbeb5062fb07d65783913d8a99a184aacc9c046660382764736f6c63430008040033",
  "linkReferences": {},
  "deployedLinkReferences": {}
}